:1000000008200300411B0200FD190200011A020032
:10001000591B02005D1B0200611B02000000000072
:10002000000000000000000000000000651B02004E
:10003000691B02000000000089AC000007C8010035
:1000400000000000000000006D1B0200B519020056
:1000500081F9000000000000000000000000000026
:100060000000000000000000491B0200000000002A
:100070000000000000000000510B01000000000023
:10008000370C0100790C0100F9170200F917020082
:1000900085160200000000000000000000000000C3
:1000A00070B500224FF41261DFF8140B02F002F970
:1000B000DFF8104B0022102104F11C0002F0FAF8C6
:1000C000DFF8045B0022182105F10C0002F0F2F8C1
:1000D0000022082104F12C0002F0ECF80022082193
:1000E00004F1340002F0E6F80020E063206460646C
:1000F000A0646862A862E862DFF8D06AB063F06367
:10010000E0642863306470646863A863E863012076
:1001100028640020B064F0644FF0FF306864A86485
:100120000020E864306520657065F06530667066B3
:10013000B066F06202462C21304602F0BBF842F273
:1001400010707081B081002070600220308100202A
:10015000306002460C21204602F0ACF8DFF8700A4D
:100160006060DFF8700A2060012020720020287093
:1001700028656880A880E8806065F0662881A065B1
:1001800030636865A8656066A066E0667067306782
:1001900068662866E86501202867E866A86600208A
:1001A000E867A86768670620B0860020A082F0672D
:1001B000B0672067DFF8200AE06500202066012094
:1001C000E082962068810620F0860C2020830020A3
:1001D000B06502464021DFF85C0D02F06BF80022AA
:1001E000062104F10C00BDE8704002F063B810B5C0
:1001F00084B0DFF8D0490C22214600A802F098F81C
:10020000FFF74EFF0C2200A9204602F091F81FBD17
:100210002DE9F0472DED0C8B90B00024254600A869
:1002200021460A460B460EC0302102F0B9F89FED78
:100230009B8ADFF8906996ED1B0AD6ED140AC6ED8D
:100240001B0ADFF8887997ED149A86ED149ADFF887
:10025000788998ED131AB8EE411ADFED911AC1EEC4
:10026000819AC7ED149AD8F84420D8F83490A9EBB5
:100270000200FA30FA21B0FBF1F1FA2303FB11007E
:1002800080B2002800F0FE834C2880F28180D8F8EC
:10029000401001297CD0D7F84CA0BAF1040F21D32B
:1002A000F4EE490AF1EE10FA1CD5B4EE699AF1EEBB
:1002B00010FA17D59FED7B1A20EE811AB4EE691A59
:1002C000F1EE10FA0ED59FEDDB1AF4EE419AF1EE45
:1002D00010FA07DB87ED149AC6ED140A86ED1B0AA7
:1002E00000F009BC97ED0EAA87ED0FAAD7ED10AA72
:1002F000C7ED11AA014600EE101AB8EE400AD8ED7B
:100300000B8AC8EE800A98ED0C1A81EE001A21467D
:10031000B963396420E0521C92B2FA2A00D1224615
:10032000DFF89C3803EB8203D3ED231A71EEE01A59
:10033000D3F8743402EE103A32EE412AD7ED0E2A89
:1003400041EEA12AC7ED0E2AD7ED101A42EE021A8D
:10035000C7ED101A491C89B28142DCDBD7ED0E0AC9
:1003600080EE80BA87ED0EBAD7ED100A80EE80CA13
:1003700087ED10CAD6ED1ABA98ED150AD8ED160A0F
:1003800070EE60CAC6ED1ACA00F092FF012802D1D1
:100390002046386376E3BAF1000F0BD1388E05287A
:1003A00002DB054620463886788E052802DB451993
:1003B000204678861AFA85F0002824D1B6EE00DAB5
:1003C0003CEE2A0A20EE0D0ADFED9B0AB4EE600A2D
:1003D000F1EE10FA11D43BEE0A0A20EE0D0ADFED21
:1003E000970AB4EE600AF1EE10FA06D4B3EE040AEE
:1003F000F4EE40CAF1EE10FA05D5388E401C38866E
:10040000C8F848903EE3388E002802D045192046AF
:1004100038861AFA85F0002815D1B7EE000AF4EEF6
:10042000409AF1EE10FA00F12D839FED850AF4EE6B
:10043000409AF1EE10FA03DB788E401C788621E3B7
:100440002046788603E0788E45192046788628462F
:1004500080B200F0C3FF012808D187ED149AC7EDE0
:1004600010AAC6ED1ABA87ED0EAA0BE39FED750A26
:10047000F4EE409AF1EE10FA02DBDFF8180C386562
:1004800020463886BAF1000F0ED1386D786586EDBA
:1004900013BAC6ED19CA00F0A5FE3CE0000000004A
:1004A00000007A446666E63FB6EE00DA00F09AFE97
:1004B000012816D197ED140AF0EE000A20EE200A6A
:1004C00087ED140A6BEE0D0AC7ED0E0A2CEE0D1A1D
:1004D00087ED101AC7ED0F0A87ED111A86ED140A81
:1004E0006D1C97ED140AD6ED140A30EE200A20EEAA
:1004F0000D0A87ED150A97ED0E0AD7ED0F0A30EEBB
:10050000200A20EE0D0A86ED130A3BEEAC0A20EE1F
:100510000D0A86ED190A98F80100012840F0A7821B
:10052000D8F80C00009000A8D8F810104160D8F856
:1005300014108160214617E000AB03EB820393EDBA
:10054000010A50F822C000EE90CAB4EE600AF1EE43
:1005500010FA05D500EB820C8CED000AC3ED010A00
:10056000521C022AE8DB491C022901DA2246F8E77C
:100570009DED000AB5EE400AF1EE10FA2AD5B5EE6F
:10058000400AF1EE10FA01DCB1EE400AD0ED020AA9
:1005900030EE800A80ED020A9DED000AB5EE400AB9
:1005A000F1EE10FA01DCB1EE400AD0ED010A30EEB6
:1005B000800A80ED010A9DED000AB5EE400AF1EED9
:1005C00010FA01DCB1EE400ADDED000A30EE800ADF
:1005D0008DED000A90ED010AD0ED020A30EEC01A4E
:1005E000DDED000A30EE600AB4EE401AF1EE10FACA
:1005F00005D5F0EE410AB0EE401AB0EE600AD6ED35
:100600000B0AC6ED0C0A31EE400A80EE010A9FED9E
:100610000E1A20EE010A86ED0B0A706BB063F4EE41
:10062000400AF1EE10FA11D570EE600AC6ED0D0A1F
:1006300010E000BF01004040000016430000A0424F
:10064000666616400100A0400000C84270EEC00A75
:10065000C6ED0D0A386F796F081800EBD0704010A6
:1006600002EE100A86ED0F2AC6ED108AD7ED100AA9
:10067000C6ED110AD7ED141ADFF8300CC0EDC41A1C
:1006800096ED121A31EE611AD6ED122A72EEE12AB7
:1006900021EE221A00F5447181ED011AC6ED121AFD
:1006A000D7ED1B1AC1ED021AD8F81810039103A94F
:1006B000C1ED011AC1ED020AC1ED038AC1ED041AB0
:1006C000C1ED058AC1ED061AB8EEC22A81ED072AEE
:1006D000C1ED081A81ED090AC1ED0A1A81ED0B1A64
:1006E000DDED032A9FEDD03A62EE832A9FEDCF3AEB
:1006F00041EE832A9FEDCE3A20EE833ADFEDCD3AEC
:1007000008EEA33ADFEDCC3A61EEA33A9FEDCB4A77
:1007100048EE843A9FEDCA4A21EE844ADFEDC94A89
:1007200002EE244ADFEDC84A61EEA44A9FEDC75AA3
:1007300040EE054A9FEDC65A21EE855ADFEDC55AB7
:1007400001EE255AF8EE085AF4EE652AF1EE10FA99
:1007500000F18D81DFEDC05AB4EE653AF1EE10FA8A
:1007600000F18581DFEDBD5AF4EE653AF1EE10FA45
:1007700000F17D81DFEDBA5AB4EE654AF1EE10FA70
:1007800000F175819FEDDF6AF4EE464AF1EE10FA52
:1007900000F16D819FEDDC6AB4EE465AF1EE10FA7D
:1007A00000F16581DFEDD96AF4EE662AF1EE10FA08
:1007B000C0F25D81DFEDD62AB4EE623AF1EE10FAB6
:1007C000C0F25581F4EE653AF1EE10FAC0F24F81B5
:1007D000B4EE464AF1EE10FAC0F24981F4EE654AF1
:1007E000F1EE10FAC0F24381DFEDCA2AB4EE625A8C
:1007F000F1EE10FAC0F23B81DFEDC72A9DED033A1E
:10080000B4EE623AF1EE10FA01D5CDED032ADDED3A
:10081000032A9FEDD83AF4EE432AF1EE10FA02DBF8
:10082000DFF8AC2B0392DFEDD42AF4EE621AF1EE7E
:1008300010FA01D5C1ED012A9FEDB83ADFEDB83AC3
:1008400091ED014AB4EE634AF1EE10FA01DB81ED5D
:10085000013A9FEDB44AF4EE440AF1EE10FA01D5E4
:1008600081ED024AD1ED020A9FEDAF4AF4EE440A4F
:10087000F1EE10FA02DBDFF85C2B8A60DFEDBF0AD5
:10088000F4EE608AF1EE10FA01D5C1ED030A9FED96
:10089000BC4AD1ED034AF4EE444AF1EE10FA02DB11
:1008A000DFF8342BCA60F4EE621AF1EE10FA01D5CB
:1008B000C1ED042AD1ED044AF4EE634AF1EE10FAD8
:1008C00001DB81ED043AF4EE608AF1EE10FA01D515
:1008D000C1ED050AD1ED050AF4EE440AF1EE10FA75
:1008E00002DBDFF8F42A4A61F4EE621AF1EE10FA44
:1008F00001D5C1ED062AD1ED060AF4EE630AF1EE48
:1009000010FA01DB81ED063AF1EE000AB4EE602A3E
:10091000F1EE10FA02D54FF08142CA61D1ED070A1B
:100920009FEDA12AF4EE420AF1EE10FA02DBDFF8A5
:100930002C2CCA61F4EE621AF1EE10FA01D5C1ED69
:10094000082AD1ED080AF4EE630AF1EE10FA01DB91
:1009500081ED083ADFED950AB4EE600AF1EE10FA87
:1009600001D5C1ED090A91ED090ADFED910AB4EE56
:10097000600AF1EE10FA02DBDFF8E42B4A62F4EED3
:10098000621AF1EE10FA01D5C1ED0A2A91ED0A0AB8
:10099000B4EE630AF1EE10FA01DB81ED0A3AB5EE2E
:1009A000401AF1EE10FA01D52246CA6291ED0B0A07
:1009B000DFED800AB4EE600AF1EE10FA02DBDFF838
:1009C000A42BCA62214612E01B1FD3ED000A92ED50
:1009D000031AF4EE410AF1EE10FA01D59FED760A02
:1009E000B8EEC00AD2ED020A00EE208A491C312975
:1009F00038DA9FED720A0B011A18D2F804C0BCF164
:100A0000010F0DF10C0C1B580CEB8303DCD11B1FE9
:100A1000D3ED000A92ED031AF4EE410AF1EE10FA5A
:100A2000DEDB9FED650ADBE7168733BDB0568DBD73
:100A300003275BB9E23C9CB9983115BEBF49D3B9D5
:100A40007061FDBD55C128BC36CB05BE3D7FDABB0C
:100A5000DDED0ABEE4BE353E6666A6BF3333F3BFA6
:100A6000CDCC4CBFB5EE408AF1EE10FA0ADC97ED22
:100A7000150A284680B200F0B1F800F057F8044695
:100A8000C8F84890C8F844900020C8F84C00C8F84E
:100A90002C00C8F83000C8F840000246102106F1CA
:100AA0001C0001F007FC00220C2108F10C0001F0F1
:100AB0007BFC4948F06500203066F88800281AD190
:100AC000F86F00280CD0B86C3969401AB98EB0EBB9
:100AD000510F02DB002038810DE0012038810AE04F
:100AE000388E798E11FA80F0032802DB01203881DC
:100AF00001E002203881204610B0BDEC0C8BBDE82F
:100B0000F08700BFCDCC8CBF333333BFCDCC0CC00E
:100B10009A9919BFCDCC4CBE5017C93F15E6684015
:100B200016E668407D90A341A2F2924438B50025B4
:100B3000DFF8BC4B0120E06700F0F0FC2060E06CC7
:100B4000A18E884214D3A06C2061A08DA080E08D7E
:100B5000E080A06DA061E06DE061206E2062606EBB
:100B60006062A06EA0620120A0672846E0670125B0
:100B7000284632BDC9AC4542A9F56E3EBA9F17441E
:100B80003564EC441148016981640021C16441600D
:100B9000022101810021C162016A0166816A8166C8
:100BA0000021C16770470000010058427B4D4F3D56
:100BB00047FFC742BEBA984101000000FFFFFFFF98
:100BC0007852030054480300D846030058470300F6
:100BD00000002F430000704200007A442DE9F84FD6
:100BE0002DED048B82B08346F0EE400A00239E4632
:100BF0001846DFF8FC4AE56C05F10F0101F00F0122
:100C0000EA1D02F007020092CA4A02EB8106C6ED15
:100C1000000ABBF1000F15D0064611E04F1EBF1BA6
:100C200010374FEAE70C07EB1C7C4FEA2C1CB7EBA4
:100C30000C1703D402EB8707C7ED000A761C36B207
:100C40005E45EBDB102D02D2294609B200E00F21F0
:100C50009FEDB68A9FEDB51ADFEDB51A06461BE08B
:100C600052F8217000EE107AB5EE400AF1EE10FA5B
:100C700010DD38EE008AB4EE401AF1EE10FA01D51C
:100C8000B0EE401AB4EE610AF1EE10FA01D5F0EEC2
:100C9000401A761C491E09B20029E1D536B2314608
:100CA00003290BDB38EE410A30EE610A891E01EEA2
:100CB000101AB8EEC11A80EE018A07E0012905DB9F
:100CC00000EE106AB8EEC00A88EE008AB5EE408ADF
:100CD000F1EE10FA01D0002E01D1B0EE608A84ED61
:100CE000168A9FED950AB4EE408AF1EE10FA02D50D
:100CF000B0EE408A08E09FED910AB4EE408AF1EE32
:100D000010FA01DBB1EE028AB0EE040AB4EE408ABA
:100D1000F1EE10FA08D494ED1B0AF0EE080AB4EED6
:100D2000600AF1EE10FA02D50321A18501E0042149
:100D3000A185A66C06F00708DFF8BC7908EB070C64
:100D4000A18D8CF8B818BBF1000F0AD0721E02F00A
:100D50000702D21906F00709B94499F8B89882F841
:100D6000B89808220EE0B9F1040F00D1401CA8F198
:100D700001080FFA88F8B8F1000F01D508F108084A
:100D8000521E12B2012A16DB0FFA88F808EB070987
:100D900099F9B898B9F1030F02D10EF1010E03E0F1
:100DA000B9F1040F00D15B1C062AE0DBB9F1030F97
:100DB000D9D1401EDBE7E28D9BB21FFA8EFE734550
:100DC00007D39E4502D20420E0850DE000B2002842
:100DD00002D50320E08507E0012802DB0420E0853E
:100DE00002E09CF9B808E085B4F82E80B8F1040F51
:100DF00001D1184600E07046424509D0002020810C
:100E0000E088002820D1042D1ED3012020811BE082
:100E100013FA8EF2012A15DB052A10DB00EE102AE8
:100E2000B8EEC00AF6EE080A20EE200A00EE900A9C
:100E3000F8EE600AF4EE400AF1EE10FA02D5012055
:100E4000208101E002202081DFF8B09849B2B0EEA5
:100E5000480A484600F020F9DFED8D0AB4EE600A3A
:100E6000F1EE10FA01D5B0EE600A84ED170A58468B
:100E700000F1010A00EE90AAF8EEE08AD4ED180A1B
:100E800048EE800AC4ED180A9FEDCB9A20EE080ABE
:100E900020EE090A009907EB810101F65C0181ED62
:100EA000000ABBF1000F16D0002212E00099491E83
:100EB000891A08318B1001EB5373DB10B1EBC301BE
:100EC00005D407EB810101F65C0181ED000A521C9B
:100ED00012B28242EADB082D02D2284600B203E0B9
:100EE000072001E0401E00B20028FBD584ED190A5E
:100EF000414649B2484600F047F968EE090AB7EEA4
:100F0000001AC1EE200A20EE800AD4ED1A0A48EE3B
:100F1000800AC4ED1A0A0AEB0600A0640AEB050079
:100F2000E06402B0BDEC048BBDE8F18F000000006E
:100F30000000C84228B203006666A63F0100904048
:100F400049B2032944D1DFED9D0AB4EE600AF1EE07
:100F500010FA01DBB0EE600A9FED991ADFED990AF5
:100F600040EE010A90ED011A9FED970AB4EE401A87
:100F7000F1EE10FA43DADFED951AB4EE611AF1EEF4
:100F800010FA74DBB4EE401AF1EE10FA6FD59FED53
:100F9000900A31EE000ADFED8F1A60EE211A9FED04
:100FA0008E0A9FED8E2A01EE002A22EE200A20EE04
:100FB000210A9FEDB72ADFEDB72A41EE022A62EE41
:100FC000A00AB7EE001A31EE611A00EE810A56E06F
:100FD000DFED830A60EE200A60EE800A9FEDAE1A14
:100FE00040EE410A9FEDAD0A70EE800A90ED011AC5
:100FF0009FED750AB4EE401AF1EE10FA0ADB90ED9F
:10100000010A9FED751ADFED751A40EE011A21EE07
:10101000A00A34E0DFED6D1AB4EE611AF1EE10FAB9
:1010200025DBB4EE401AF1EE10FA20D59FED680AE8
:1010300031EE000ADFED671A60EE211A9FED660AB5
:101040009FED662A01EE002A22EE200A20EE210AF8
:101050009FED8F2ADFED8F2A41EE022A62EEA00A71
:10106000B7EE001A31EE611A00EE810A07E090ED4A
:10107000010A20EE800ADFED8A0A20EE200A007ABB
:10108000022803D1DFEDCA0A20EE200A70470000D3
:10109000CDCC4C3E0000A04010B52DED028BB0EE43
:1010A000408A0C46DFED7F8A49B2FFF749FF64B200
:1010B000042C31D1DFED7C0AB4EE608AF1EE10FA37
:1010C00016DBB1EE021AB4EE418AF1EE10FA0FD53A
:1010D000DFEDB80A78EE200AB1EE041A60EE810A5C
:1010E000FCEEE00A10EE900AC01D08EE900A3DE00A
:1010F000B4EE608AF1EE10FA03D5072008EE900AEC
:1011000034E0F1EE020AB4EE608AF1EE10FA2DDB63
:10111000122008EE900A29E0F7EE080AB4EE608A81
:10112000F1EE10FA11DBDFEDA40AB4EE608AF1EE05
:1011300010FA0AD5FFEE080A78EE200AB1EE041A7A
:1011400060EE810AFCEEE08A10E0F7EE080AB4EEE9
:10115000608AF1EE10FA09D4DFED970AB4EE608AE6
:10116000F1EE10FA02DB062008EE900ADFF8580DC7
:1011700018EE901A00EB8100D0ED000A20EE200A54
:10118000BDEC028B10BD0000F0EE0C0A49B2042940
:1011900004D19FED8A1A40EE010A03E09FED881A00
:1011A00040EE010A9FEDDB0A20EE800AD0ED000A36
:1011B00020EE200A70470000000070429A99194002
:1011C0006ADEF13D8638163F00002A4300001643D0
:1011D000000016C3CDCC4C3D4260E53A6666263F22
:1011E0002575C23E0020DFF8081591ED140AF7EED0
:1011F000040AB4EE600AF1EE10FA47DADFF8CC2CFC
:10120000D288042A42DAD1ED150A9FED6E1A60EEFB
:10121000810AB4EE600AF1EE10FA03D5022A01DB6E
:10122000012012E0DFF8D41491ED0A0ADFED660A1E
:10123000B4EE600AF1EE10FA07DBDFED640AB4EEFB
:10124000600AF1EE10FA00D5012001281ED1DFF866
:10125000AC1491ED170AD1ED180A70EEC00A9FED9B
:10126000AE1AF4EE410AF1EE10FA07DBF7EE080AC7
:10127000B4EE600AF1EE10FA00D50020DFEDB30AFB
:10128000B4EE600AF1EE10FA00D5002070470000BD
:1012900052491D3BB81E053F7593E83F24975340C4
:1012A000C1C0C03B00000000666606400840030065
:1012B0000021DFF83C24D38D032B1BDA92ED140AB6
:1012C000DFEDA30AB4EE600AF1EE10FA12DB92ED44
:1012D0000E0AF2EE040AB4EE600AF1EE10FA09D535
:1012E00092ED100ADFED9B0AB4EE600AF1EE10FAFF
:1012F00000D5012192ED100AF6EE000A92ED111AC6
:1013000030EE011A21EE201AF3EE0E1AB4EE611A35
:10131000F1EE10FA1CD492ED0E1AD2ED0F1A71EE06
:10132000211A61EEA01AB2EE042AF4EE421AF1EE8E
:1013300010FA0DD4F3EE041AB4EE610AF1EE10FACD
:1013400006D4B1EE040AB4EE401AF1EE10FA00D55C
:10135000012192ED140A9FED801AB4EE410AF1EEDC
:1013600010FA23DBDFF8942392ED090A92ED0A1AB2
:1013700080EE010A9FEDA51AB4EE410AF1EE10FAD3
:1013800014DB00EE100AB8EE400A20EE200AD2ED7F
:10139000070AF4EE400AF1EE10FA07D5D2ED080A7A
:1013A000F4EE400AF1EE10FA00D50121084670472C
:1013B0003333733F666606C09A993940CDCC4C3EB4
:1013C000CDCCCC3D3333333F010020420000C84236
:1013D000C8AC4542A1F292443464EC440021C44AB2
:1013E000D36C13FA80F0022816D392ED140ADFEDC5
:1013F000880AB4EE600AF1EE10FA0DDB92ED110AE4
:10140000D2ED100A80EE200ADFED820AB4EE600A07
:10141000F1EE10FA00DB0121022818D39FED7E0ABD
:10142000D2ED110A92ED101AC0EE810AF4EE400AD4
:10143000F1EE10FA0BDBD2ED0F0A92ED0E1AC0EEB0
:10144000810AF4EE400AF1EE10FA00DB01210028D7
:101450000ED0AA4890ED190ADFED9E0A20EE200A70
:10146000D0ED1A0AF4EE400AF1EE10FA00D501218F
:1014700092ED140ADFED980AB4EE600AF1EE10FA6C
:1014800008DA92ED150ADFED950AB4EE600AF1EE86
:1014900010FA1ADB92ED100ADFED910AB4EE600A41
:1014A000F1EE10FA0DD492ED0E0ADFED8E0AB4EED5
:1014B000600AF1EE10FA04D4DFF8100AC08802289E
:1014C00003DBD08D032800DB01218C4890ED130A4B
:1014D000DFED830AB4EE600AF1EE10FA08D492ED63
:1014E0001B0AF1EE040AB4EE600AF1EE10FA0ED512
:1014F000106F526F101800EE100ABAEEEF0ADFED0F
:101500007A0AB4EE600AF1EE10FA00DB0121084617
:10151000704700000AD7A33B0100C03F0020744978
:101520008A6C12F10A0F0FD29FED700AD1ED180AE2
:10153000F4EE400AF1EE10FA06DAD1ED1A0AF4EEF2
:10154000400AF1EE10FA00DB0120704785EB113FF5
:1015500001000040000020420100404000005842CD
:1015600046FFC742BDBA984110B401460020634A05
:10157000614BD3F8144900EE104AD1ED000AB4EEE5
:10158000600AF1EE10FA08D1147B641C1473E4B203
:10159000FE2C04DB3224147301E00446147303F6BA
:1015A000141393ED010AD1ED010AB4EE600AF1EED5
:1015B00010FA08D1547B641C5473E4B2FE2C04DB93
:1015C0003224547301E00446547393ED020AD1EDC2
:1015D000020AB4EE600AF1EE10FA08D1917B491CC0
:1015E0009173C9B2FE2904DB3221917301E00146F7
:1015F0009173117B322905DA517B322902DA917B12
:10160000322900DB012010BC704700003433333F27
:10161000010060400100A04001007041014600202F
:1016200091ED000AB5EE400AF1EE10FA01DCB1EEE0
:10163000400A324ADFED2F0AB4EE600AF1EE10FAEA
:1016400008DBD37B5B1CD373DBB2FE2B04DB3223C2
:10165000D37301E00346D37391ED010AB5EE400A5E
:10166000F1EE10FA01DCB1EE400AB4EE600AF1EEE0
:1016700010FA08DB137C5B1C1374DBB2FE2B04DB5B
:101680003223137401E00346137491ED020AB5EEA0
:10169000400AF1EE10FA01DCB1EE400AB4EE600A45
:1016A000F1EE10FA08DB517C491C5174C9B2FE29D5
:1016B00004DB3221517401E001465174D17B32299F
:1016C00005DA117C322902DA517C322900DB012053
:1016D000704700009A99993E0100904001008040B7
:1016E0000000C8430000164301005C428096184B7E
:1016F0005847030035336B417852030054480300C8
:101700002DE9F24F2DED048B84B004469FEDE58A60
:10171000DFEDE48A9FEDE39ADFF8405BE888ADF8FF
:101720000800A888ADF8020028898DF8000000277D
:101730003E462046FFF718FF01902046FFF76EFF58
:101740008246DFF888873046C8F85400C8F8580049
:10175000D8F86800DFF8089BD9F8141900EE101AC1
:10176000D4ED000A30EEC01A01EE900AF8EEE11A4C
:1017700021EE211AB5EE401AF1EE10FA1ED598EDC1
:101780001D1A70EE411AF5EE401AF1EE10FA01DC66
:1017900071EE401A9FEDC41AF4EE411AF1EE10FA00
:1017A00007DB296F491C2967D8F85C10491CC8F869
:1017B0005C1088ED1D0A4042C8F8680009F6141054
:1017C00090ED010AD8F86C1094ED011A31EE401A30
:1017D00001EE901AF8EEE11A21EE211AB5EE401A48
:1017E000F1EE10FA1ED598ED1E1A70EE411AF5EEC4
:1017F000401AF1EE10FA01DC71EE401A9FEDAA1AC0
:10180000F4EE411AF1EE10FA07DB2A6F521C2A6738
:10181000D8F86020521CC8F8602088ED1E0A4942A2
:10182000C8F86C1090ED020AD8F8700094ED021A16
:1018300031EE401A01EE900AF8EEE11A21EE211A7B
:10184000B5EE401AF1EE10FA1ED598ED1F1A70EEA3
:10185000411AF5EE401AF1EE10FA01DC71EE401A71
:101860009FED911AF4EE411AF1EE10FA07DB296FA1
:10187000491C2967D8F86410491CC8F8641088ED21
:101880001F0A4042C8F8700098F80000052809D1E6
:101890000120C8F84000304688F80000A8F802008F
:1018A000A8F80400D8F84C0008990818C8F84C00AB
:1018B000D8F83400D8F84410884202D10120C8F882
:1018C0004000D8F8380000EB400109EB810B0BF623
:1018D000C000C0ED000A61684160A168816008999C
:1018E000204600F029FA68610198012802D0BAF177
:1018F000010F32D19FED6B0ADBF8C00800EE900AB1
:1019000060EEA00ADBF8C40801EE100A21EE011A0D
:10191000DBF8C80801EE900A61EEA11ADFF844096D
:10192000017B322904DAC17B322901DA30EE800AE8
:10193000417B322904DA017C322901DA30EE010AD6
:10194000817B322904DA407C322801DA30EE210A28
:1019500000F094FCF0EE409A37E00BF50C60D0ED0F
:10196000020A90ED011ADBF8C00800EE100A20EE22
:10197000000A01EE010A00EEA00A00F07FFCF0EE82
:10198000409AD4ED010A94ED000A20EE000A00EE20
:10199000A00A00F073FCB0EE408AD4ED020A94ED88
:1019A000010A20EE000A00EEA00A00F067FCF0EE4B
:1019B000408AD4ED020A94ED000A20EE000A00EEFF
:1019C000A00A00F05BFCB0EE409AD8F83C0000287A
:1019D0002ED130460CE009EB8001C1ED159A09EBE0
:1019E000800282ED008AC1ED078A81ED0E9A401CCB
:1019F0000728F0DBB1EE0C0A69EE800AC8ED090A8F
:101A0000D8F80C00C8F81800D8F81000C8F81C0066
:101A1000D8F81400C8F8200068EE000AC8ED030AE0
:101A200068EE800AC8ED040A29EE000A88ED050A6E
:101A3000D8F8380009EB800191ED150A39EEC00A9B
:101A4000D8ED090A30EE200A88ED090AC1ED159A91
:101A5000D8F8340009EB800080ED230AD8ED0B0A9A
:101A600070EE800AC8ED0B0AD8F80C20C8F81820D0
:101A7000D8F81020C8F81C20D8F81420C8F8202066
:101A8000D8F8382009EB820282ED008AC1ED078A7E
:101A900081ED0E9A3246DFED030A9FED021ADFED6B
:101AA000011A12E000000000CECC4C3E09EB82038C
:101AB00093ED002A70EE820A93ED072A31EE021AA6
:101AC00093ED0E2A71EE821A521C072AEEDBC8ED46
:101AD000030A88ED041AC8ED051AD1ED1C0A70EE50
:101AE000600A00F27442C2ED000A81ED1C0A98ED12
:101AF0000C0AD0F8741400EE901A30EE200A88ED2B
:101B00000C0A09F6141194EC030A81EC030ADFF8BD
:101B10005417096F01290AD10120C8F84000304646
:101B200088F80000A8F80200A8F804007EE0D8F8C1
:101B30005010491CC8F8501098F80020012A01D014
:101B4000032A3AD102292BD2EA8D042A28DAE96C39
:101B500000296BD198ED0A0ADFEDDA0AB4EE600ACB
:101B6000F1EE10FA08D5D0F8741401EE101AB4EEA4
:101B7000601AF1EE10FA0FDAF9EE0C0AB4EE600A10
:101B8000F1EE10FA52DBD0F8740400EE100AB4EE55
:101B9000600AF1EE10FA49D50120C8F8400045E08E
:101BA00027290AD3B8F80220002A03D011FA82F1BB
:101BB0004B2902D30121C8F84010D0F8740400EE7C
:101BC000900A98ED0A0A00F083F998F800000128BD
:101BD0002CD1B8F80200002828D0B8F80410002949
:101BE00024D0032211FA80F03D2802DB0120C8F83E
:101BF0004000E88D042800DB0222B8F8060082428B
:101C000002D20120C8F840003046C8F86400C8F885
:101C10006000C8F85C00FEF7FBFA0746286F6867AB
:101C200030462867A8F80400A8F80600D8F8340061
:101C3000D8F84810401AFA30FA242146B0FBF1F1E6
:101C400004FB1100B8F80A10884201D100F031FA03
:101C5000D8F83400D8F84810401AFA302146B0FBC2
:101C6000F1F104FB1100642801D100F063FAE88867
:101C7000BDF80810814204D1BDF80210AA88914233
:101C800000D00126002814D0D8F83400D8F8481025
:101C9000401AFA302146B0FBF1F104FB1101322960
:101CA00002D10120288116E04B2914D1002028817F
:101CB00011E0A88800280ED0D8F83400D8F84810D1
:101CC000401AFA302146B0FBF1F104FB11007D28E7
:101CD00001D1012028819DF800002989884200D087
:101CE0000126D8F8340009EB8001D1F87414C8F843
:101CF0002810401CC8F83400FA2802D10020C8F887
:101D00003400D8F83800401CC8F83800072802D141
:101D10000020C8F83800D8F83C00401CC8F83C0047
:101D200047EA0600401E8041C043C00F04B0BDEC2E
:101D3000048BBDE8F28F000030B4DFF8243590ED5D
:101D4000000AD3F8142900EE902A30EE600A03F658
:101D50001412D0ED010A92ED011A70EEC10A90ED55
:101D6000021AD2ED021A31EE611AB5EE400AF1EE16
:101D700010FA02DDF0EE401A01E0F1EE401AF5EE45
:101D8000400AF1EE10FA02DDB0EE602A01E0B1EE99
:101D9000602AB5EE401AF1EE10FA02DDF0EE412AAB
:101DA00001E0F1EE412A71EE821A71EEA21AB5EE4F
:101DB000400AF1EE10FA01DCB1EE400ADFF8A404AB
:101DC00090ED072A32EE000A80ED070AF5EE400A90
:101DD000F1EE10FA01DCF1EE600A90ED080A30EE47
:101DE000200A80ED080AB5EE401AF1EE10FA01DC87
:101DF000B1EE411A90ED090A30EE010A80ED090AB0
:101E000090ED0A0A30EE210A80ED0A0A2F4AD46BBF
:101E1000002C12D1002406E003EB850505F67C05B5
:101E2000C5ED001A641CA4B225460F2DF4DBB2EEFA
:101E30000E0A21EE800A80ED150A148903EB840353
:101E4000D3F87C5800EE105A31EEC00AD0ED150AD6
:101E500030EE200A80ED150A03F67C03C3ED001A6C
:101E6000F2EE0E0A80EE200ADFF8F03383ED1B0A53
:101E7000D0ED170AB4EE600AF1EE10FA01D580ED4C
:101E8000170AD0ED180AF4EE400AF1EE10FA01D567
:101E900080ED180ADFEDA50AB4EE600AF1EE10FA43
:101EA00003D5836DC918816501E000218165611C3E
:101EB000118189B20F2901D100211181806D30BCBF
:101EC000704700000100E040D8490300D8460300F5
:101ED0009FED971ADFF88403C08D042801DBB0EE74
:101EE000001ADFF88403B5EE400AF1EE10FA07DBC2
:101EF000F5EE400AF1EE10FA02D5C188491CC18006
:101F00000178002905D0022960D02DD3032976D08D
:101F1000B0E0F1EE0C1A31EE211AB4EE401AF1EEF7
:101F200010FA0BDBB4EE601AF1EE10FA06D5016D73
:101F30001029C0F08F80002101658BE0416BDFF834
:101F4000202302EB8101D1F8741401EE901ADFF81E
:101F50001C1391ED010AF4EE401AF1EE10FA40F173
:101F60008980C1ED011A85E0416BDFF8F42202EBB4
:101F70008101D1F8741401EE901ADFF8F01291ED9E
:101F8000002AB4EE612AF1EE10FA01D5C1ED001A73
:101F9000F7EE001AB4EE610AF1EE10FA6ADBB7EE62
:101FA000000AF4EE400AF1EE10FA63D5016D4180AB
:101FB00000210165B9EE0C0A30EE410AF4EE400A48
:101FC000F1EE10FA10D40221017053E0F9EE0C1A70
:101FD00031EEC11AB4EE410AF1EE10FA4ADBF4EE2A
:101FE000410AF1EE10FA45D5032101709C49426B7C
:101FF00001EB8201D1F874149C4A51603AE0416BC4
:10200000974A02EB8101D1F8741401EE901A9749B6
:1020100091ED012AF4EE421AF1EE10FA01D5C1ED6C
:10202000011ADFED7B1AB4EE610AF1EE10FA21D548
:10203000F4EE610AF1EE10FA1CDB016D81800021E3
:102040000165B1EE0C0A31EE000AB4EE600AF1EE61
:1020500010FA0ED50121017084490A6842654A6868
:1020600082657F4A436B02EB8302D2F874240A60D4
:1020700000E0017000787047002803D077492C22D7
:1020800000F056B97047002806D0764942684A6089
:1020900002680A60007A0872704780B5002801D192
:1020A000002002BD54220146714800F041F9012090
:1020B00002BD10B5694CE08DA18D002904D0002827
:1020C00002D00020208106E0084302D001202081B8
:1020D00001E0022020810020E0646062A061A08015
:1020E000A08520636065A06502464021614800F03C
:1020F000E1F8E06F012801D1FEF744FD5948818ADB
:10210000002909D0E28E8A4201D2A18600E0A2868F
:10211000002181820846A067A06F012801D1E08ECE
:10212000A0860020A06710BD00000000EC51383EE2
:102130000000000010B5494CE08DA18D002904D0AD
:10214000002802D00020208106E0084302D00120B0
:10215000208101E00220208100206062A061E085F2
:10216000E08002460821444800F0A4F800202063E3
:10217000E06F012801D1FEF705FDA06F012801D114
:10218000E08EA08610BD80B5012036490867FFF7B4
:10219000D1FFFFF78EFFBDE8014003E00020314989
:1021A000086770472F48008B2C49898E814200D2E6
:1021B00000E070472949CA6C8B8E9A4203D2888608
:1021C0000020886770472749888270472348C16C80
:1021D000002904D1018E408E10FA81F07047002052
:1021E000704701460020002902D0012901D0704724
:1021F00002E01A48C06C70471848818EC26C891A78
:10220000028E891A408E081A00D5002070470000FF
:10221000FEFF7FBF38B504461348124D0F49012C0D
:1022200006D10622CA860C222A839622428105E024
:102230000722CA860F222A8364224281E88AA042AA
:1022400009D0888E082803DAC88EFFF7B3FF02E0B2
:10225000288BFFF7AFFFEC8231BD00005847030029
:102260007852030054480300D8460300B4B5030075
:10227000D849030028B20300305B030081B08DED24
:10228000000A0098401000F1FE500090DDED000AB9
:10229000C0EE200A9DED001A70EE810ACDED000A15
:1022A000B5EE001ADDED001A80EE210A00EE810A7B
:1022B00001B0704762F30F2262F31F4200B500BF06
:1022C000130096469446103928BFA0E80C50FAD85F
:1022D0005FEA417C28BF0CC048BF40F8042BC90707
:1022E00028BF20F8022B48BF00F8012B00BD50F892
:1022F000041B61B150F8042BD30744BFA9F10103BB
:102300009A180023091F42F8043BFAD1EFE77047FF
:1023100062B38B0708D0521E11F8013B00F8013B55
:1023200000F024808B07F6D1830740F0208000BFA7
:10233000103A07D330B4B1E83810103AA0E838109A
:10234000F9D230BC530724BFB1E80810A0E8081048
:1023500044BF51F8043B40F8043BD20724BF31F896
:10236000022B20F8022B44BF0B7803707047083A09
:1023700007D3B1E80810083A40F8043B40F804CB12
:10238000F7D25307E4E78268521C8260426832B198
:102390000268531C036011704168491E4160704718
:1023A0000022FFF78BBF000062F30F2262F31F428F
:1023B000401810F0030308D0C91A1FD3DB0748BF29
:1023C00000F8012D28BF20F8022D130030B4144668
:1023D0001546103928BF20E93C00FAD8490728BF24
:1023E00020E90C0048BF40F8042D890028BF20F8E0
:1023F000022D48BF00F8012D30BC7047C91818BF26
:1024000000F8012DCB0728BF00F8012D7047000010
:1024100010B50FF2740001F0EBFBDFF8104D002057
:1024200060732087E06402464421DFF8040DFFF763
:1024300041FF01223C21AA2001F07EFE00202074F1
:10244000A073E063A065A4F84000A074024604F104
:10245000AC01012002F0B9FA002805D00FF23C00CF
:1024600001F0C6FB032010BD002204F1B801652075
:1024700002F0ABFA002805D00FF2340001F0B8FBEF
:10248000032010BD002010BD50443A2053746172E7
:10249000745065646F2D30383232000050443A2059
:1024A0004641494C20524547494143430000000002
:1024B00050443A204641494C20524547494C4942F4
:1024C0005648000010B5DFF8644C002204F1AC015E
:1024D000012002F0D0FA002805D00FF22C0001F004
:1024E00087FB032010BD002204F1B801652002F033
:1024F000C2FA002805D00FF2240001F079FB032076
:1025000010BD002010BD000050443A204641494C07
:1025100020554E52454749414343000050443A201C
:102520004641494C20554E524547494C4942564830
:10253000000000002DE9F0438BB005A81421FFF73F
:102540002FFF0FF2B8100068049005A9012002F0D7
:102550002CFE04A9062002F028FE02F010FFB0F1C4
:10256000010868EB08084FEAD87802F005FF012857
:1025700001D1012000E00020DFF8FC5C69784145D2
:1025800001D085F801802978814200D02870DFF8D9
:102590009C4B06200020C046002816D1DFF8DC0C3A
:1025A00004900020E063B4F84000401CA4F8400010
:1025B00080B242F2293188424BDB0FF2441001F025
:1025C00017FB0020A4F8400043E094F9080002281B
:1025D00038D19DED040AD4ED160AB4EE600AF1EE8E
:1025E00010FA03D1A08F401CA08701E00020A08733
:1025F0009DED040ADFEDA70AB4EE600AF1EE10FAD1
:1026000006D4DFEDA50AB4EE600AF1EE10FA03DBA2
:10261000E08F401CE08701E00020E087E78FA68F75
:10262000972E01DA972F0FDB049803F097F8CDE986
:1026300000013A4631460FF2D40001F0D9FA0020E9
:10264000E06301E00020E0630020A4F8400004986B
:10265000A065606C006AD0F80C9001F0FBFC207261
:10266000CDF8049005A984B068461422FFF760FEF7
:102670000FBC9DED040A01F0D9FBA06C4844A06496
:102680002869401C286142F22931884229DB02F086
:10269000C7FEDFF8582D002303F088F806460F46E2
:1026A00094F90C00039094F90B000290A06C019037
:1026B000606C90F82800009043464A46D5E9020134
:1026C000311A0FF25C0001F093FA606C406A002846
:1026D00003D10FF2700001F08BFAC5E90267002008
:1026E000286195F9010000F03BFB002801D000F0C3
:1026F000D5F800200BB0BDE8F0830000000000001A
:1027000050443A204261726F4F66660050443A204E
:102710004241524F20256420256420256600000098
:1027200050443A20747325642073742564206C63CC
:102730006425642072656625642025642025642054
:1027400025640A0050443A206578206E756C6C0A46
:102750000000000010B5DFF8D44994F9000000280B
:102760003AD494F90A0094F90110814228D1217BCE
:102770000818A07240B23D2801DB3C38A07294F9E1
:102780000A100FF2700001F033FA0020A064DFF8A5
:10279000840C90F90100014611F1010F01D10120D3
:1027A00010BD94F90120511A012901DB101A00E033
:1027B000801A40B2012801DB012010BD002010BDAD
:1027C000DFF8E40C90F90120914203D0D4E9002312
:1027D000C0E90023002010BDA06CDFF8D01C8842A7
:1027E00005DB0FF21C0001F003FA012010BD0020F0
:1027F00010BD000050443A204E54202564000000D3
:1028000050443A204E6F54696D65000010B40020AA
:10281000DFF8181902E00B7B9A188A7291F90A20E6
:10282000002811D44878801A40B20128F3DA002831
:102830000AD0030000D55B4291F90C409C42EDDACE
:10284000101B88720020E9E73C2A02DBA2F13C0061
:10285000887210BC704780B5DFF8D0080021817302
:1028600001210172002141724FF0FF3101700F21EF
:10287000C17214210173002141730187C164417445
:10288000016541650A4624211430FFF713FD00203D
:1028900002BD00000000FA430180BB4430B5A5B082
:1028A0000AA85821FFF77CFD00A82821FFF778FD32
:1028B00020A81421FFF774FD0AA800F047FEDFF8F6
:1028C000804C9DF8290020709DF829000146C02900
:1028D00006D113A9C88DA4F85E00086B2066E9E054
:1028E000E02953D100203FE00AA901EB8001D1F893
:1028F0000220130223F0FF13120A02F0FF121A4300
:10290000C1F802204FEA3242C1F80220D1F8062075
:10291000130223F0FF13120A02F0FF121A43C1F848
:1029200006204FEA3242C1F80620D1F80A201302ED
:1029300023F0FF13120A02F0FF121A43C1F80A2013
:102940004FEA3242C1F80A20D1F80E20130223F0D8
:10295000FF13120A02F0FF121A43C1F80E204FEAC9
:102960003242C1F80E20001D1428BDDB50210FF2A9
:10297000741001F03DF950220DF12A01601CFFF79F
:10298000C7FC5120A4F85E00246693E0000633D40F
:102990009DF82A008DF8800020A89DF82B1041702A
:1029A000002181709DF82C10C170BDF833100A0A07
:1029B000027141710DF133018A788271C978C17158
:1029C0009DF8371001729DF8381041729DF82D1056
:1029D00081729DF82E10C1729DF82F1001739DF821
:1029E000301041730E2220A9601CFFF791FC0F20CC
:1029F000A4F85E0024665DE0DDF82A10080C8DF86E
:102A0000000000A80A0A42708170DDF82E100A0C3E
:102A1000C2700A0A02714171DDF832100A0C82712B
:102A20000A0AC2710172DDF836100A0C42720A0AF3
:102A30008272C17213990A0C02730A0A427381737B
:102A400013A90A79C2734A790274CA88130A8DF8E5
:102A500011308274097A8DF81310DDF83A100A0CDF
:102A600002750A0A8DF815208175DDF83E100A0CF2
:102A70008DF817200A0A8DF818208DF81910DDF846
:102A800042100A0C82760A0A8DF81B208DF81C1061
:102A9000DDF846100A0C8DF81D200A0A82778DF8A1
:102AA0001F10202200A9601CFFF732FC2120A4F88F
:102AB0005E002466B4F85E20D01CDFF87016496C06
:102AC0004882DFF8845A0120287068700320A870BB
:102AD000216EE81CFFF71CFC29462C2002F0A6FA08
:102AE00025B030BD50442053462053656E74256494
:102AF0000000000038B5DFF834364FF46164C1EBF4
:102B00000115AD0014FB005414194FF47A756C4391
:102B1000DC611B7C009313460A4601460FF2080055
:102B200001F066F831BD000050443A20425420259F
:102B3000642025642025642025640000F8B52DED6F
:102B4000028BA0B0DFF8E865314684B068464422C5
:102B5000FFF7EEFB0FBC00F0ABFC10EE100A02F02A
:102B6000FDFD41EC100B9FED7C8BDFF8C045256A25
:102B700053EC102B51EC180B02F090FE02F060FFAA
:102B800015FA80F020624FF6FF75A84200D3256247
:102B9000314684B068464422FFF7CAFB0FBC00F000
:102BA0003BFC10EE100A02F0D9FD41EC100B676AF5
:102BB00053EC102B51EC180B02F070FE02F040FFAA
:102BC00017FA80F06062A84200D3656200200E9080
:102BD00002200D90314684B068464422FFF7A8FBDE
:102BE0000FBC00F0A7FAE18A4018E08280B2FF280B
:102BF00001DBFF20E08200200E9003200D90314683
:102C000084B068464422FFF793FB0FBC00F092FAB1
:102C1000A16A4018A062A84200D3A56200200E90CD
:102C200006200D90314684B068464422FFF780FBB1
:102C30000FBC00F07FFA218B4018208380B2FF2860
:102C400001DBFF20208300200E9007200D903146ED
:102C500084B068464422FFF76BFB0FBC00F06AFAB1
:102C6000618B4018608380B2FF2801DBFF20608306
:102C700000200E9008200D90314684B06846442212
:102C8000FFF756FB0FBC00F055FAE16A4018E0620E
:102C9000A84200D3E56200200E9009200D90314635
:102CA00084B068464422FFF743FB0FBC00F042FAB1
:102CB000216B40182063A84200D325630FA801F0C0
:102CC000CDF9276D1E9802F049FD0022DFF85C3C2B
:102CD00002F0E4FD02F0B4FE57FA80F02065616D69
:102CE000491C6165B0FBF1F0207500200E900120B9
:102CF0000D90314684B068464422FFF719FB0FBCA3
:102D000000F018FA616B40186063A84200D3656355
:102D1000E07B00F0FEFA20B0BDEC028BF1BDDFF8E5
:102D20000C04C18A002914D1816A002911D1018BB8
:102D300000290ED1418B00290BD1C16A002908D18D
:102D4000016B002905D1406B401E8041C043C00F7C
:102D5000704701207047000000000000000059404B
:102D60002DE9F04FA1B006460025B246DFF8BC437E
:102D7000A07B3146884205D0BAF1010F78D12846B0
:102D800001F00CFD0FA801F069F9DFF8A4932846C3
:102D90000E9001200D90494684B068464422FFF70A
:102DA000C7FA0FBC00F0C6F907469DED1E0AD9ED23
:102DB0000F0A30EE600A10EE100A02F0CFFC2A462D
:102DC000DFF8683B02F06AFD02F03AFE80461FFA27
:102DD00088F8B9F80200BDF83E10A1EB000B5FFACD
:102DE0008BFBD9F81020139B9A4207D1884205D15A
:102DF000B9F80A00BDF84610884210D00FF28022C0
:102E0000D2E90001CDE90001139800901398D9F898
:102E10001010401A019000A94D2002F007F9002E71
:102E20003FD1002F02D15BEA080000D0012500202D
:102E3000A0644FF0FF302070D4E90001DFF868266D
:102E4000C2E90001DFF8B82BC2E90001DFF8C425B0
:102E5000C2E90001E07AA072A07B00285AD00020CD
:102E6000A073207C002855D001206074054651E0F5
:102E7000002E10D1606C90F82810406A002801D113
:102E80002A4600E001220FF2002000F0B1FE0120EE
:102E900001F084FC76E70FF2042000F0A9FE28463A
:102EA000EBE00FF21422D2E90001CDE9000100A805
:102EB00002F0CDFA00F0CAF9002817D0DDE90001D0
:102EC000C4E9000128466072D4E90001DFF8D82582
:102ED000C2E9000194F9023094F9012094F900103C
:102EE0000FF2DC1000F084FEFFF790FCDDE900013A
:102EF000C4E90001FFF72EFC00280BD0D4E9000143
:102F0000DFF81025C2E90001207C002801D0012053
:102F100060740125BAF1010F06D1A07B31468842C9
:102F200002D000F065FAA673BAF1010F56D1002F56
:102F300054D0DFF8CC6AE07B217C08430AD1012021
:102F40002074D4E90001C6E90201A27861782078F2
:102F5000FFF7D0FD94F9010096F90910401A411EBF
:102F6000222901D2012005E010F1230F01DA01200E
:102F700000E0002001282AD1FFF7D1FE002826D04A
:102F8000E07B401CE073C0B2152809D10FF2481055
:102F900000F02EFE012060741420E073012516E07D
:102FA0000020206560650246242104F11400FFF72B
:102FB00081F9207C401C2074A27861782078FFF78A
:102FC00099FD0622214606F10800FFF7B1F9FFF747
:102FD000B5FD44220FA94846FFF7AAF9607B0128F6
:102FE00034D1208F002805D10FF2FC0000F000FE44
:102FF000012523E0E16C814218D2002F02D15BEA67
:10300000080000D00125DFF8F86996F9020094F96C
:103010000220904212D0491CE1640FF6383000F0D3
:10302000E7FDD4E90001C6E9000107E00020607374
:103030002087E0640FF62C3000F0DAFDBAF1010FC2
:1030400004D1207C002801D001206074284601288A
:1030500001D10021A164616C496A002906D10021D7
:10306000A164012801D100F0C3F90025002D03D18E
:10307000A07C012800D10125284621B0BDE8F08FB1
:10308000000000000000000050443A206C63646FB0
:103090006E206325642065256400000050443A20BA
:1030A0006249734150536C656570696E6720777231
:1030B0006F6E672025640000000000000000000023
:1030C00050443A2054696D654E6F74692025642020
:1030D000256420256400000050443A2042542042D8
:1030E000462046554C4C000050443A205265712011
:1030F0005065646F496E666F3100000080B5002036
:10310000DFF8FC19886400F002F8002002BD00B569
:1031100091B000A800F0A2FF442200A9DFF8E40962
:10312000FFF706F9012011B000BD0000FC450300C7
:1031300024B103000FB410B592B000249DF998009B
:1031400001280BD101F071F81899884202D3441A72
:10315000E4B271E08038441AE4B26DE000A800F0F7
:103160007DFF9DF99400401E082865D8DFE800F037
:103170002905111D2935414D590005981999884295
:1031800001D3441A58E0DFF880291018401A441C73
:1031900052E006981A99884201D3441A4CE0DFF8AD
:1031A00068291018401A441C46E007981B99884269
:1031B00001D3441A40E0DFF850291018401A441C8B
:1031C0003AE004981899884201D3441A34E0DFF8B1
:1031D00038291018401A441C2EE008981C9988427F
:1031E00001D3441A28E0DFF820291018401A441CA3
:1031F00022E009981D99884201D3441A1CE0DFF8A7
:1032000008291018401A441C16E00A981E99884292
:1032100001D3441A10E0DFF8F0281018401A441CBB
:103220000AE00B981F99884201D3441A04E0DFF8A2
:10323000D8281018401A441C204612B010BC5DF863
:1032400014FB0120DFF8B81848727047DFF8B008A7
:10325000407A704700F00CBF0146DFF8A4287929B6
:1032600002DB7820108700E01087012050730FF6F2
:10327000081000F0BDBC000000B5030000007A4457
:1032800010B5040001D1012402E0072C00DB062464
:1032900021460FF6F80000F0ABFC641E052C2DD87B
:1032A000DFE804F0030A11181F26DFF8540837215D
:1032B000C1723C21017321E0DFF844081921C17279
:1032C0001E2101731AE0DFF838080F21C1721421A2
:1032D000017313E0DFF828080A21C1720F2101737E
:1032E0000CE0DFF81C080721C1720C21017305E016
:1032F000DFF80C080521C1720A210173DFF800080C
:10330000C17A8172BDE81040FFF780BADFF8FC0790
:10331000704700EB80018800821CDFF8F007DFF8BF
:10332000E017CB691B0E92B21354521CCB691B0CD5
:1033300092B21354521CCB691B0A92B21354521C02
:10334000CB6992B21354521C0B6A1B0A92B21354EB
:10335000521C0B6A92B21354521C4B6A1B0A92B253
:103360001354521C4B6A92B21354521CCB8A92B221
:103370001354521C8B6A1B0A92B21354521C8B6A50
:1033800092B21354521C0B8B92B21354521C4B8B9F
:1033900092B21354521CCB6A1B0A92B21354521CA1
:1033A000CB6A92B21354521C0B6B1B0A92B2135489
:1033B000521C0B6B92B21354521C0B7D92B21354DD
:1033C000521C4B6B1B0A92B21354521C4B6B92B2A1
:1033D0001354501C4887704710B5DFF82447618F9D
:1033E0000FF2B47000F004FC608F10BD40420F007B
:1033F00010B5DFF80C470022242104F11400FEF779
:1034000059FF0020E07301206087002020742065B0
:10341000606510BDACB503000FB400B591B000A855
:1034200000F01CFE9DED0C0ADDED1E0AB4EE600AF4
:10343000F1EE10FA02DB30EE600A05E09FED411A72
:1034400071EE600A30EE800A10EE100A02F086F982
:10345000DFF8BC26DFF8BC3602F01EFB02F090FB62
:1034600002F07CF90022DFF8B03602F017FA02F021
:10347000E7FA00EE100AB8EEC00A10EE100A02F0E9
:103480006DF9DFF88C26DFF8943602F007FADFF8E2
:103490009026DFF8903602F0FFFA02F071FB00EEA2
:1034A000100A11B05DF814FBA4B5030040771B00AF
:1034B0000FB400B591B000A800F0D0FD9DED0E0A4C
:1034C000DDED200AB4EE600AF1EE10FA02DB30EE18
:1034D000600A05E09FED1B1A71EE600A30EE800A6B
:1034E00010EE100A02F03AF9DFF82426DFF824364D
:1034F00002F0D2FA02F044FB02F030F90022DFF8C9
:10350000183602F0CBF902F09BFA00EE100AB8EE82
:10351000C00A10EE100A02F021F9DFF8F425DFF8F6
:10352000FC3502F0BBF9DFF8F825DFF8F83502F0DA
:10353000B3FA02F025FB00EE100A11B05DF814FB9F
:10354000A4AF03000024744958A0030070B52DED0A
:10355000068BA0B004460FA800F080FDDFF8A05550
:10356000687B012804D1288F002801D100206873CE
:10357000A87C01280AD1E0206070502205F15C018E
:10358000A01CFEF7C5FE0020A874C2E1687C0128DB
:1035900016D1287C002813D0C0216170DFF86C158B
:1035A000C0220A70487004F12406FFF715FFF08569
:1035B000FFF7ACFE3063FFF71BFF00206874A8E143
:1035C0009FEDD68B9FEDD79BDFF8385500200E90EE
:1035D00001200D90294684B068464422FEF7A8FEDB
:1035E0000FBCFFF7A7FD0A2880F0BE8000206070A6
:1035F0000E9002200D90294684B068464422FEF7C2
:1036000097FE0FBCFFF796FD6178084360700020BD
:103610000E9003200D90294684B068464422FEF7A0
:1036200087FE0FBCFFF786FDA07000200E900420DF
:103630000D90294684B068464422FEF779FE0FBCFF
:10364000FFF778FDE07000200E9005200D902946D0
:1036500084B068464422FEF76BFE0FBCFFF76AFD9C
:103660002071294684B068464422FEF761FE0FBCF3
:10367000FFF71EFF10EE100A02F070F841EC100B7D
:1036800053EC102B51EC190B02F008F902F0D8F9A9
:10369000A4F80B0004F10B061E9802F05FF853EC3F
:1036A000182B02F0FBF802F0CBF9B070BDF83E0029
:1036B000F070294684B068464422FEF739FE0FBCFC
:1036C000FFF7AAFE10EE100A02F048F841EC1A0BC0
:1036D00053EC1A2B51EC190B02F0E0F802F0B0F9A0
:1036E000E0731F9802F03AF853EC182B02F0D6F86A
:1036F00002F0A6F9207400200E9006200D902946B5
:1037000084B068464422FEF713FE0FBCFFF712FD9B
:10371000607100200E9007200D90294684B0684605
:103720004422FEF705FE0FBCFFF704FDA071002048
:103730000E9008200D90294684B068464422FEF77A
:10374000F7FD0FBCFFF7F6FCE07100200E9009209A
:103750000D90294684B068464422FEF7E9FD0FBC6F
:10376000FFF7E8FC2072D2E08020607000200E900D
:1037700002200D90294684B068464422FEF7D8FD09
:103780000FBCFFF7D7FCC4F8020000200E90032006
:103790000D90294684B068464422FEF7C9FD0FBC4F
:1037A000FFF7C8FCC4F8060000200E9004200D901E
:1037B000294684B068464422FEF7BAFD0FBCFFF7E5
:1037C000B9FCC4F80A0000200E9005200D9029468F
:1037D00084B068464422FEF7ABFD0FBCFFF7AAFC9D
:1037E000C4F80E00294684B068464422FEF7A0FDC6
:1037F0000FBCFFF75DFE10EE100A01F0AFFF41ECC9
:10380000100B53EC102B51EC190B02F047F802F09F
:103810002DF9606204F124061E9801F09FFF53EC1D
:10382000182B02F03BF802F00BF93071BDF83E00A6
:103830007071294684B068464422FEF779FD0FBCBA
:10384000FFF7EAFD10EE100A01F088FF41EC1A0BB9
:10385000DFF8D422DFF8D43202F0DAF908D8DFF842
:10386000D022DFF8D03202F0EBF901D29FED65AB48
:1038700053EC1A2B51EC180B02F010F802F0E0F8A0
:10388000F0801F9801F06AFF53EC182B02F006F845
:1038900002F0D6F8307200200E9006200D902946D6
:1038A00084B068464422FEF743FD0FBCFFF742FC9C
:1038B000C4F8120000200E9007200D90294684B015
:1038C00068464422FEF734FD0FBCFFF733FCC4F812
:1038D000160000200E9008200D90294684B06846FE
:1038E0004422FEF725FD0FBCFFF724FCC4F81A00A4
:1038F00000200E9009200D90294684B0684644228D
:10390000FEF716FD0FBCFFF715FCC4F81E00FFF70D
:10391000FEFB20B0BDEC068B70BD00000000000077
:103920000000244000000000000059400000244036
:1039300070B582B004460020002C05D10FF26C2037
:1039400000F056F9002076BD04F1500149780129B4
:1039500048D10FF26C2000F04BF90020ADF80000C8
:10396000754D674E17E0BDF8000006EB8000C2659C
:1039700000EE102AB8EE400ADFED600A20EE200AC1
:10398000BDF8000005EB800080ED000ABDF80000E6
:10399000401CADF80000BDF8000014281CDABDF88A
:1039A000000054F82020A2F52F70B0F5167FDAD968
:1039B000BDF800100FF2142000F01AF9BDF8000055
:1039C0004FF07E5145F820104FF47A70BDF800108A
:1039D00006EB8101C865D9E701202865284600F07B
:1039E000DFFE0BE0022909D194F850100FF2F0101D
:1039F00000F0FEF894F850000120C046C0B276BD39
:103A000058B503009A9999999999B93F80B51128A9
:103A100002D11078FFF720FC002002BD30B595B030
:103A20001446102826D0142811D0152814D0162892
:103A300017D017281AD0292806D0372848D1002CAB
:103A400046D0FFF75BFB43E0FFF7FBFB40E021784C
:103A50000020FFF7FFFB3BE021780120FFF7FAFB96
:103A600036E021780220FFF7F5FB31E02078FFF700
:103A700007FC2DE000A85421FEF792FC217814AD3C
:103A800069700FF2BC0000F0B3F86878012817D114
:103A900000200FE004EB80014A788B781B0403EBD5
:103AA0000262CB7802EB03220979511800AA42F88E
:103AB0002010401C1428EDDB00A8FFF739FF07E0B9
:103AC000022805D160788DF8500000A8FFF730FF7C
:103AD000002015B030BD0A494864C431C1612C21B1
:103AE0000170142181600121017301820021418252
:103AF0001249416100207047000000006F12833AB4
:103B0000FC45030024B103008096980020A2030026
:103B10007B14AE47E17A743F00005940E17A843F5C
:103B20002D431CEBE2361A3FB81E85EB51B89E3F81
:103B30009A9999999999B93F8449030058A003002B
:103B400050443A2050726F70657274792053462049
:103B50002564000050443A207574696D6572202513
:103B60006400000050443A20526571205065646F33
:103B7000496E666F3200000050443A2053746172FF
:103B800074204461746120256400000050443A2090
:103B9000555420256400000050443A204241544CC2
:103BA000454E4754482025640000000050443A2008
:103BB00053462050545233206E756C6C0000000048
:103BC00050443A20534620534554310050443A2043
:103BD0005346204552525B25645D20256400000059
:103BE00050443A2053462053455432202564000067
:103BF0000EB470B5C1B0044600A84FF48071FEF752
:103C0000CFFB45AB22464FF4807100A802F030F89C
:103C100000A802F04BF8441C002000A9611801F82C
:103C2000010C644D2878401C2870802080F3118896
:103C300000BF00BF6878401C68705F4E317808464E
:103C40002218FA2A0DDA5D4A8018002902D00A21CA
:103C500000F8011C224600A9FEF75AFB3078201814
:103C600030706878401E6870C0B2002802D1002011
:103C700080F3118802F056F941B070BC5DF810FB7A
:103C80004D480078002801D0801C00E00020C0B220
:103C9000704738B5484C2278002A10D000280ED042
:103CA000032101704270454D2946801CFEF730FB10
:103CB0000022FA212846FEF7FDFA0020207031BDCF
:103CC000F0B595B004A80FF2FC010CC90CC092200D
:103CD00002F0DCF9040004D10FF2F000FFF788FFD6
:103CE00065E000229221FEF75FFB002517E000202F
:103CF0008DF802009DF80200002803D0C8680190EA
:103D000008690290306A002801D0C0680390102230
:103D100000A904EB0510801CFEF7FAFA6D1C072DB4
:103D200016DA04A82F5C384600F05DFF0600F5D0D7
:103D300000A81021FEF734FB8DF8007006F120007A
:103D4000017A8DF8011041680029D0D00120CFE719
:103D50000CA82021FEF724FB194800680C9000F005
:103D6000F7FD0D9001F005FB8DF838000DF13A00DC
:103D700001F06DFB10A801F049FB20220CA904F111
:103D80007200FEF7C5FA06A80FF24C011422FEF7E6
:103D9000CFFA9220ADF81B00312020700720607010
:103DA000214606A802F09CF9204602F087F915B0DA
:103DB000F0BD0000684B030006B60300D8AA03005C
:103DC000501B02000102040508102C005243492038
:103DD0006661696C00000000050000000000000042
:103DE000000000000000000000000000DFF898095B
:103DF000C17900EB810181ED030AC17900EB8101FA
:103E0000C1ED070AC17900EB810181ED0B1A017A3E
:103E1000042901DA491C0172C179491CC171C9B276
:103E2000042901DB0021C171704700000FB42DE9A6
:103E3000F8432DED028B88B0B0EE408ADFF8484998
:103E4000B4F8B25004F148064FF00A08B6F912006F
:103E500010FB08F0B6F91410A0EB010904F5E077A7
:103E6000384603F095F894F8C00110FB08F0797813
:103E700000EB01081FFA88F8B8F12A0F18D10FFAE1
:103E800089F9B9F1000F13D5B86800280DD10120C8
:103E9000FEF7A7F98146FEF776F90120B8604A4699
:103EA00041460FF60010FFF7A3FE0120786016E0F0
:103EB000B868012807D1FEF771F90020B8600FF645
:103EC0000410FFF795FE7868B8F1280F48DA01284A
:103ED00003D10FF61C10FFF78BFE002078601298BC
:103EE00004909DED130A8DED050ADDED140ACDED6C
:103EF000060A94ED121ADDED121AB4EE611AF1EE13
:103F000010FA52D196ED011AB4EE401AF1EE10FA01
:103F10004BD196ED020AB4EE600AF1EE10FA44D1EC
:103F2000DFF86878386800F10108C7F80080B8F158
:103F3000150F22D3B06801F011FCCDE902017068C1
:103F400001F00CFCCDE90001A06C01F007FC024679
:103F50000B460FF6A800FFF74BFE002038602EE05E
:103F6000002805D1002241460FF66400FFF740FE0D
:103F700001207860FEF716F9B1E7B8F1020F1ED301
:103F8000B06801F0EBFBCDE90201706801F0E6FBDF
:103F9000CDE90001A06C01F0E1FB02460B46414671
:103FA0000FF66C00FFF724FE09E00498A064059862
:103FB00070600698B0600020DFF8D017086004A891
:103FC00090EC030AFFF712FF179F384680B2B0EE5D
:103FD000480A03F0B5F8394604A8FDF791FB04F14F
:103FE0005400FEF749F8F068012811D1FCF7FFF8FA
:103FF00004F15400FEF740F82C2204F1540104F1BE
:104000008000FEF795F90FF62000FFF7F1FD01E0C3
:1040100000F018F9B4F8B200854213D0002811D18D
:1040200004F1C005286A01F099FBCDE90001A86AF6
:1040300001F094FB02460B46D4F8C0100FF2F0706A
:10404000FFF7D6FD002008B0BDEC028BBDE8F203FF
:104050005DF814FBDFF8300780797047002806D040
:10406000DFF82417D1F8AC104422FEF761B970478D
:1040700010B500281CD1DFF810473C3400EE101AB0
:10408000B8EE400A84ED010A2046FDF7FCFF94EDEE
:10409000010AF2EE0A0A20EE200A10EE100A01F0E0
:1040A0005DFB02460B460FF29C70FFF7A1FD2FE06F
:1040B00001281CD1DFF8D04600EE101AB8EE400AF5
:1040C00084ED0F0A04F13C00FDF7DDFF94ED0F0ACB
:1040D000F2EE0A0A20EE200A10EE100A01F03EFB72
:1040E00002460B460FF26870FFF782FD10E00228CF
:1040F0000ED1DFF894463C3421722046FDF7C3FF11
:10410000207A0D2111FB00F10FF25070FFF770FDC6
:104110000FF25470FFF76CFD42F26A7001460FF225
:104120005470FFF765FD40F2EE7001460FF25070DB
:10413000BDE81040FFF75CBD2DE9F8432DED028B83
:1041400084B00746884691460FF21C70FFF750FD79
:1041500042F26A7001460FF21C70FFF749FD40F20F
:10416000EE7001460FF21870FFF742FDDFF81846B7
:1041700000224FF4E6712046FEF79CF804F13C065D
:1041800004F1F405356700EE107AB8EE408A86ED4A
:10419000018A00EE108AB8EE400A84ED0F0A86F814
:1041A0000890F2EE0A8A48460D2111FB00F00290B9
:1041B00020EE280A10EE100A01F0D0FACDE9000135
:1041C00028EE280A10EE100A01F0C8FA02460B4643
:1041D0000FF2BC60FFF70CFDFBF762FF3046FDF706
:1041E00052FF04F1B00142F21070C8800881002033
:1041F000A4F8B0004880022048812C222846FEF70F
:1042000097F80220A07102F08DFF0120607104F583
:10421000E07002F0BDFE0020C4F8C801C4F8C4017B
:1042200004B0BDEC028BBDE8F18310B592B0FDF790
:10423000CDFF044600A8FFF711FF0498001912B043
:1042400010BD00002DE9F0412DED028BDFF838455F
:1042500004F16405E86A616E814205D1B4F85A2020
:104260006B8C9A4200F08780B1EB000802D5DFF832
:104270002005804495ED060AD5ED110A70EE608A9E
:10428000F5EE408AF1EE10FA03D59FED930A78EE31
:10429000808A95ED040AD5ED0F0A30EE608AB5EEFE
:1042A000408AF1EE10FA03D59FED8B0A38EE008AB2
:1042B000B4F85A00C0B295ED050A03F03DF8B0EE2F
:1042C000401A261D7078012802D002282BD033E036
:1042D00004F59C7739469FED811AF0EE480AB0EE5E
:1042E000680A404600F056F8207940442071C0B278
:1042F000062821DB04F5A47004F1B0019FED771AC4
:10430000D0ED0A0A90ED080AD4F8480100F042F80E
:104310002079401C2071002244213846FDF7CAFF55
:104320000220707008E004F1B001F0EE480AB0EE2F
:10433000680A404600F02EF8B4F85A00002809D167
:104340000022442104F59C70FDF7B4FF0020207189
:10435000012070702C2204F1540104F18000FDF75B
:10436000E7FF04F1B001A96404F1F40644223046E9
:10437000FDF7DEFFAE6404F15A004088B4F8FE1089
:10438000884203D0A4F8BA00A4F8FE00BDEC028B6A
:10439000BDE8F081F8B52DED048B8AB0B0EE409AFF
:1043A000B0EE608AF0EE418A0C46DFF8DC53B5F8D7
:1043B0005A60B5F85870A680B0EE680A00F0BDF8F3
:1043C0002868002818D194ED0C0A30EE090A84ED13
:1043D0000C0A00F0B1F984ED0C0A66802780286F82
:1043E000606394ED0E0A30EE080A84ED0E0A00F0C8
:1043F00097F984ED0E0A4AE005F13C0007AA0AC8C5
:104400000AC20368136005F1540184B068462C2287
:10441000FDF78EFF0FBCB0EE680A00F033F9D4ED63
:104420000C0A30EE800A84ED0C0A00F085F984ED68
:104430000C0AF5EE408AF1EE10FA0BDD032E03D1E3
:1044400006206080208010E0042E0ED108206080BD
:1044500020800AE0032E03D107206080208004E042
:10446000042E02D1092060802080F6EE000A95ED2E
:104470001C0A20EE200A84ED0D0A94ED0E0A08EEC7
:10448000200A84ED0E0A00F04BF984ED0E0A95ED3A
:104490001E0ADFEDB20A20EE200A84ED0F0ADFEDDE
:1044A000B00AB4EE600AF1EE10FA01DBB948E0633D
:1044B000E86E20646088002801D100202064A86E86
:1044C000E060B5F860002081B5F85C0060810AB05A
:1044D000BDEC048BF1BD0000002474490000000015
:1044E00010B50C46A188032912D1B5EE400AF1EEB1
:1044F00010FA06DD216A4018206200F029F92062D6
:1045000010BD616A4018606200F022F9606210BD5F
:10451000042911D1B5EE400AF1EE10FA06DDA16AC8
:104520004018A06200F014F9A06210BDE16A4018C2
:10453000E06200F00DF9E06210BD70B52DED028B68
:104540000546B0EE408A0C4620692818206100F02C
:10455000FFF82061B5EE408AF1EE10FA02DDB0EE10
:10456000480A01E0B1EE480AB5EE400AF1EE10FA51
:1045700046DD854E3068002833D1D6F898010628EC
:1045800011D26188042905D1D6F894116918C6F8AA
:10459000941104E0D6F890116918C6F89011281803
:1045A000C6F8980151E0E1694018E06100F0D0F8E8
:1045B000E0612146B0EE480AD6F89801FFF790FF77
:1045C000E0692818E06100F0C3F8E0612146B0EE30
:1045D000480A2846FFF784FF00F03AF801203060CF
:1045E00033E0E0692818E06100F0B2F8E0612146AC
:1045F000B0EE480A2846BDEC028BBDE870406FE77C
:104600006088032802D0042807D00DE060692818CC
:10461000606100F09DF860610CE0A0692818A0615D
:1046200000F096F8A06105E060692818606100F06C
:104630008FF86061544ED6F89801002801D000F040
:1046400010F800F005F800203060BDEC028B70BD62
:104650004D480021C0F8901100F5C870416081609C
:1046600070474948D0F8C410D0F890215118C0F8CC
:10467000C41000F1C4014A68D0F894018018486061
:10468000704700000FB4DFED370A9FED361AF0EEE9
:104690000C1A9DED092ABDF8060004280FD1DFEDA4
:1046A000322A42EE221AB5EE400AF1EE10FA15D483
:1046B0009FED2E1A22EE011A21EE001A0EE0DFED18
:1046C0002C2A42EE221AB5EE400AF1EE10FA05D479
:1046D0009FED281A22EE011A21EE001AB5EE402AAB
:1046E000F1EE10FA0ED09DED060AB5EE400AF1EE9D
:1046F00010FA07D0DFED200A20EE200AF7EE000ABC
:10470000C0EE800A31EE810A9FED1C1A20EE010AEC
:104710009DED0B1A20EE010A20EE200A04B070472E
:10472000DFED170AB4EE600AF1EE10FA03DBDFEDFD
:10473000150A30EE200A7047DFED110AB4EE600A68
:10474000F1EE10FA03DBDFED0F0A30EE200A7047BE
:104750000F49884201D31049081870478FC2753D30
:104760000100C84100000000CDCC4C3E6666663FAB
:10477000CDCCCC3D6666E63F000070420AD7A33B35
:1047800001247449002474C98C9E0300ECB5030015
:10479000819698000000C841806967FFFDF73ABD27
:1047A000FDF77BBC50443A2042505F4F4E205648A4
:1047B000282564292043757253746570282564295F
:1047C0000000000050443A2042505F4F464600002F
:1047D00050443A2053746570436E745570205648A7
:1047E0002825642920435943282564290000000016
:1047F00050443A20455849542056480050443A20E5
:104800004E414320256620256620256600000000D5
:1048100050443A204E41435B25645D2025662025A7
:10482000662025660000000050443A204F465200A2
:1048300050443A2025642C20252E32662C20252E2B
:1048400032660A0050443A203120256600000000FC
:1048500050443A20322025660000000050443A209F
:10486000332025640000000050443A2030354E4F7C
:104870005631390050443A204D50445F762564004B
:1048800050443A2050524950445F7625640000005D
:1048900050443A20312025662032202566203320DE
:1048A000256400002DE9F04100242546DFF8E0767C
:1048B0001EE0052002F01EFF0020F169096888470C
:1048C000002804D02046441CC0B20228F1DBE4B228
:1048D000032C0BDB0020317847F82100307857F8A3
:1048E0002000C8F80400304601F0E8FB6D1C0024ED
:1048F0001D2D18DA2C2001F0C9FB064622462C217A
:10490000FDF7D8FCDFF88C86304658F8351088471C
:10491000307847F8206008EBC508307857F8200059
:10492000C8F80400C8E72046BDE8F081DFF860164B
:10493000D1F88411082807D1002903D091F8280064
:10494000002803D1012070470029FBD100207047C7
:1049500030B400216FF00042104616E0DFF8344614
:1049600004EBC3035B68002B0ED01C6A002C0BD039
:10497000DD78002D08D1E4681B78052B01D1042CCB
:1049800002D0A04200DD2046491C49B20B461D2B37
:10499000E4DB082801D0102800D10420904200D187
:1049A000002030BC704710B50C468168002901D04A
:1049B000A1606160C078012801D10020606060685A
:1049C00000F07CFD6060A06010BD2DE9F04184B076
:1049D000044615462646DFF8B80550F826700878D4
:1049E0008DF800004868019088680290002F01D17E
:1049F00003203DE000A93846FFF7D5FF00A907F1E5
:104A0000200003F01BF907F11C0898F80C0001289E
:104A100007D10020F96949688847204600F0ECFB7F
:104A200009E03879012806D19DF80000002802D15C
:104A3000204600F020FA2A4600213720FB691B6936
:104A40009847F878002804D1DFF84C15022003F0CD
:104A50006FF9D8F80800002801D0012300E00023F6
:104A600098F80C2031460FF23850FFF7C1F80020BB
:104A700004B0BDE8F081FEB506461446DFF8100527
:104A800050F8265008788DF8000048680190886832
:104A90000290002D08D005F11C079DF800000028A9
:104AA0000AD1B868002801D10320FEBDC06801907A
:104AB000B8680069029003E000A92846FFF773FF79
:104AC00000A905F1200003F0D9F8EB69387B002834
:104AD00003D10020D968884704E02246002138200D
:104AE0001B699847DFF8B014022003F021F9B86879
:104AF000002801D0012300E000233A7B31460FF269
:104B0000AC40FFF775F80020FEBD2DE9F0410646E8
:104B10000C461546DFF8780450F826703846FFF743
:104B200042FF002F05D007F11C08D8F80800002824
:104B300001D103202BE0C1686268914205D101696F
:104B4000A268914201D1002021E000F1080107F1A3
:104B5000200003F093F8002818D1214607F1200027
:104B600003F06CF82A4600213920FB691B6998473D
:104B7000DFF82414022003F0DBF898F80C2031460B
:104B80000FF23440FFF734F8002000E00320BDE8C6
:104B9000F08110B50C4611461A46DFF8F43353F88D
:104BA0002030002B01D1012010BD2046DB691B699C
:104BB0009847002010BD10B50C4611461A46DFF884
:104BC000D03353F82030002B01D1012010BD192C17
:104BD00003D1012100F07BF903E02046DB695B692A
:104BE0009847002010BD0146752901DA002801D13F
:104BF00000207047DFF8980350F82100704710B587
:104C000082B000218DF80010082804D010281CD094
:104C1000202830D013BD00AA01213A20DFF87033DC
:104C20005B68DB695B6998479DF80000800703D5E6
:104C30000021012003F0C3F89DF80000400732D5A1
:104C40000021022003F0BBF813BD00AA01213A2085
:104C5000DFF83C335B68DB695B6998479DF80000CF
:104C6000000703D50021032003F0A9F80021042048
:104C700003F0A5F813BDC648046A00F0D1FBE26951
:104C80009268904700280AD1606A002807D0C1685E
:104C90000069814203D10021082000F018F90021A9
:104CA000084603F08CF813BD2DE9F04186B00446A8
:104CB00001A80FF23C311422FDF73AFB00F059FB3A
:104CC000012801D1012500E00025B44EC6F80042BC
:104CD000002730E075281BDA0120BDF80710885541
:104CE000022200A9BDF807008019401CFDF710FB47
:104CF00008F11001BDF807008019C01C03F0F3F89B
:104D0000BDF80700BDF80010C91C0818ADF8070071
:104D1000214608F1200002F0CEFF042F0AD1BDF891
:104D20000700002806D0314601A801F0D9F900207B
:104D3000ADF807007F1C1D2F77DA964800EBC700FF
:104D4000D0F80480B8F1000FE7D098F828000028C8
:104D5000E3D098F803000028DFD1D8F8200040699C
:104D6000001B012805DA00F05BFBD8F81C209268D4
:104D70009047D8F824000028CAD08069001B012879
:104D8000C6DA002D03D098F80C000028C0D008F136
:104D9000100003F0E4F8ADF8000008F1100003F093
:104DA000EBF8ADF802000028B2D0BDF80700BDF85E
:104DB000001011FA80F2101DB0F5007F0CDD0FF22B
:104DC00004210FF21420FEF713FF314601A801F071
:104DD00087F90020ADF8070098F800002928BFF6F1
:104DE00079AF3720BDF80710885598F80000BDF856
:104DF00007108919487002220DF10201BDF8070061
:104E00008019801CFDF784FA08F11001BDF8070035
:104E10008019001D03F067F8BDF80700BDF8001009
:104E2000091D0818ADF8070072E7BDF80700002853
:104E300003D0314601A801F053F9002006B0BDE8C7
:104E4000F081534951F82000C178002905D1022191
:104E5000C1705149022002F06BBF70474C4951F8B4
:104E60002000C178022905D10021C1704A490220E1
:104E700002F05EBF704770B586B0044601A80FF21D
:104E800084111422FDF754FA414850F82400458A51
:104E90000120ADF80000281D01F0F8F80646372083
:104EA00030707470022200A9B01CFDF731FA311D78
:104EB000204600F07AF9281DADF80700314601A818
:104EC00001F00EF9304601F0F9F806B070BD2DE999
:104ED000F04186B004460D462D4850F8246001A8E4
:104EE0000FF234111422FDF723FA06F1100003F03B
:104EF00036F8074606F1100003F03EF8ADF8000062
:104F0000002F01D1002D3FD0002D01D0032000E063
:104F10000020002F01D0391D00E00021081801F009
:104F2000B5F88046002F13D0372088F8000088F8A5
:104F30000140022200A908F10200FDF7E9F906F19B
:104F4000100108F1040002F0CEFF381DADF8070093
:104F5000002D12D00520BDF8071001F8080001202F
:104F6000BDF8071041444870BDF807004044847004
:104F7000BDF80700C01CADF80700414601A801F0CC
:104F8000AFF8404601F09AF806B0BDE8F0810000A5
:104F9000B89C030014450300586D0300FC96030001
:104FA00023612025642C25642C2564002372202590
:104FB000642C25642C25640023632025642C25643F
:104FC00000000000636F6C6C6563745F73656E73E3
:104FD0006F725F646174610025733A2074785F6456
:104FE0006174612069732066756C6C2825642900E2
:104FF00005000000000000000000000000000000AC
:10500000000000000500000000000000000000009B
:10501000000000000000000005000000000000008B
:10502000000000000000000000000000F8B50C4681
:105030008A4951F82050002601280DD0042837D085
:10504000052861D008286CD0252800F089804A28DE
:1050500079D04D287DD093E003F02CF8804FB4F93F
:10506000000000EE900AF8EEE00A20EE800A87EDDC
:10507000000A03F01FF8B4F9020000EE900AF8EEFF
:10508000E00A20EE800A87ED010A03F013F8B4F974
:10509000040000EE900AF8EEE00A20EE800A87EDA8
:1050A000020A2088B8816088F881A088388267E089
:1050B00003F0D5F86A4FB4F9000000EE900AF8EE5C
:1050C000E00A20EE800A87ED050A03F0C8F8B4F97B
:1050D000020000EE900AF8EEE00A20EE800A87ED6A
:1050E000060A03F0BCF8B4F9040000EE900AF8EEEA
:1050F000E00A20EE800A87ED070A2088388460885D
:105100007884A088B8843BE0554F786B216888424A
:1051100000D101261C22214607F13400FDF7F8F8E2
:105120002EE020784E4F97F85010814200D1012692
:1051300087F85000B4F80100A7F85200B4F80B004B
:10514000A7F854001CE00C2221464648FDF7E0F881
:1051500016E00126082221464348FDF7D9F80FE062
:105160003F4F386E2168884204D1786E616888426A
:1051700000D101260822214607F16000FDF7C8F89A
:10518000002D11D0002E0FD1686A00280CD0406984
:1051900036490968401A012806DA214605F110004F
:1051A000BDE8F44002F07EBEF1BD02460846012A89
:1051B0000AD0042A0CD0052A0ED0082A10D04A2A78
:1051C00012D04D2A14D0704714222549FDF7A0B8FB
:1051D00014222749FDF79CB81C222649FDF798B8F0
:1051E00006222549FDF794B80C221E49FDF790B818
:1051F00008221D49FDF78CB810B5184951F8204018
:10520000012808D004280CD0052810D008281AD06E
:10521000252812D01CE0FF2214211148FDF74AF87E
:1052200016E0FF2214211248FDF744F810E0FF2297
:105230001C211048FDF73EF80AE0FF2208210F4824
:10524000FDF738F804E0FF2206210B48FDF732F89D
:1052500004F11000BDE8104002F01EBEB89C03002F
:1052600070B0030098B00300C8B00300FC980300BE
:1052700084B00300A4B00300C0B00300D0B00300AA
:1052800000B585B000A80FF298411422FDF750F840
:1052900000A9DFF8180403F001F8002803D00FF28A
:1052A0005C40FEF7A5FC05B000BD80B54FF47A72F6
:1052B000DFF8E813DFF8F00303F051F8002002BD37
:1052C0007047DFF8EC03704710B586B0044601A8BC
:1052D0001421FDF765F8FFF7F4FF00900D22214639
:1052E00001A8FDF715F80420ADF8070000A901A8F2
:1052F00000F0F6FE06B010BDF0B589B0044602A875
:105300001421FDF74DF800200146CDE900010125EB
:1053100010E02846FFF767FC00280AD0DDE90067A7
:10532000012000212A4603F083F830433943CDE9B8
:1053300000016D1C292DECDB0D22214602A8FCF793
:10534000E7FF0820ADF80B0000A902A800F0C8FE96
:1053500009B0F0BD10B5040002D00FF2B43101E085
:105360000FF2B4310FF2A030FEF742FCCC480470CB
:1053700010BDCB4800787047C94840787047C8488E
:105380008078704770B586B0044600A81421FDF7F8
:1053900007F80D22214600A8FCF7BAFFC04CD4E95B
:1053A0000401002901D100280DD00DF105052A685E
:1053B0006B68101A63EB0101BA4A0123994202D8C3
:1053C00022D3904220D3BB4D2878401C28708020E7
:1053D00080F3118800BF00BF6878401C687002F03D
:1053E00043FB0DF1050632687368C4E90423C4E980
:1053F00006016878401E6870C0B2002802D1002003
:1054000080F3118800F08EFD06B070BDA449D1E98B
:105410000423C0E90023D1E90623C0E90223704731
:1054200038B502F021FB9E4AD2E9044520186941B3
:10543000D2E90645001BA94134BD994902780A7199
:1054400042784A718078887100200881704706226E
:105450009949FCF75DBF924A136A002B01D0CB1A21
:1054600000E00346B3F57A7F00D30346108918188D
:10547000108100B2B0F57A7F05DBA0F57A7010815B
:105480009079401C907192F906003C2804DB3C386E
:1054900090715079401C507192F905003C2804DB52
:1054A0003C3850711079401C107192F90400182892
:1054B00001DB0020107111627047000010B5042854
:1054C00001DA022010BD142801DA022400E00A24C7
:1054D00090FBF4F002F0BEFF41EC100B02F0D2FFA3
:1054E00051EC100B00F0ACFA02F0B4FF41EC110BE0
:1054F0009FED720B03F011FA51EC100B00F0A0FAC3
:10550000604310BD00B587B002A80FF22821142215
:10551000FCF70EFF00A800210A4606C002F0E6F8DC
:1055200001788DF8001000A9C2784A7042798DF890
:1055300002208079C87001208DF804000520ADF8A4
:105540000B0002A800F0CCFD07B000BD30B59FB045
:1055500005A86421FCF724FF00A80FF2EC11142227
:10556000FCF7E6FE0024FF22642105A8FCF7A2FE5A
:10557000012517E02846C0B2FFF735FB002810D000
:105580002946491E012906D9C91E022903D9091F26
:1055900001D01A3905D105A964B26554408A401C6E
:1055A00004196D1C092DE5DB64B2ADF8034005A9B3
:1055B00000A800F095FD00201FB030BD10B50446D6
:1055C000A0780146491E012910D9091F19D0491E8A
:1055D0001AD0491E012924D9891E012929D9203927
:1055E0002FD1D4F80D00FFF728FF2AE0012801D1C0
:1055F000002000E001202A490870072002F0DFFBAC
:105600001FE0294802F0B7FEA078052801D101204B
:1056100000E0002022498870891C062002F0CFFBA0
:105620000FE0072801D1012000E000201C49C870CC
:1056300007E01B49092802D10020487001E0012041
:105640004870A0781438032801D915380ED12C20C1
:10565000FFF7C9FA030009D0D4F80D20B4F80310FD
:10566000A078DB691B69BDE81040184710BD817840
:105670000C2908D0182908D01B2905D02C2905D0C1
:10568000312904D070471FE636E63BE75EE7044861
:105690000078002801D1FEF713BB7047816200003B
:1056A00068B2030000F2052A8CB20300CC5F03004D
:1056B000787D3101684B03006CB2030000000000EC
:1056C0000000004080B500228DF80020082801DA93
:1056D000002809D1052907DA01208DF8000000A96A
:1056E000052002F06CFB01BD052805DA082903DB63
:1056F00000A9052002F063FB01BD0000736B697017
:105700002052434900000000617020257300000012
:1057100073757370656E6400726573756D650000F6
:1057200004FF310000000000000000000000000045
:105730000000000004FF180000000000000000004E
:10574000000000000000000004FF2C00000000002A
:105750000000000000000000000000005FF0FF0CEF
:105760001CEAD05114BF614506E0C110400721F08A
:10577000E04101F16051704779B900F00041000249
:105780000AD0B0FA80FC00FA0CF001F16051A1EBF4
:105790000C5101EBD0214005704741020CBF40F491
:1057A000E0016FF000010020704700001B4213D1A0
:1057B000094236D12AB18446B0FBF2F002FB10C296
:1057C000704703F0C9BAFCD30022002370470B00D6
:1057D0000200002100207047904271EB030CF6D3C9
:1057E00070B5B1FA81F4B3FA83F52C1BA340C4F170
:1057F000200532FA05F63343A2405FF00046E6404A
:1058000002E05B085FEA3202841A71EB030524BFF1
:10581000204629467641F4D302000B0030000021D7
:1058200070BD012ACFD970B5140C20D0B1FA81F423
:10583000B2FA82F5C4F120046419B4F12006D6D37B
:10584000B2405FF00044F440002502E052085FEAF5
:105850003303C61A71EB020E24BF30467146644111
:105860006D41F3D302000B002000290070BD0C46EF
:10587000B1FBF2F102FB11452D0445EA1045B5FBE1
:10588000F2F402FB145580B240EA0545B5FBF2F094
:1058900002FB105240EA044070BD0000B0B581EA3E
:1058A000030C0CF0004C40F2FF7515EA11541DBFBB
:1058B00015EA1357AC42AF4239E0E41923EA4553E5
:1058C00043F48013C90241F0004141EA505EC7022F
:1058D0001100A7FB020200284FF00000EEFB0120A0
:1058E0004FF00001E3FB072118BF42F0010240180E
:1058F00000214941E3FB0E01A4F580640F0302D2AD
:1059000052004041494154F101046CDD470872F1F5
:10591000004250F1000051EB0451A1F580115CBF31
:1059200041EA0C01B0BD4CEA05510020B0BD05EACA
:105930001357AC4214BFAF4241E050EA410E1CBFC6
:1059400052EA430E02E061460020B0BD24423C44CE
:105950001BD15FEA070EF6D0090302BF0146002003
:10596000AEF1140EB1FA81F7AEEB070401FA07FEAF
:105970000C37C7F1200100FA07F7C8404EEA000EC5
:1059800023EA455343F48013A2E733F00043B3FA0C
:1059900083F704BFB2FA82FE77440B3FE41BB7F1F2
:1059A000200E2FBF02FA0EF3BB40C7F1200E22FAE1
:1059B0000EFE38BF43EA0E03BA40641C82E750EA89
:1059C000410E14BF52EA430E6FF000014FF400176E
:1059D00017EB430F8ABF194617EB410FB5E74CEAA7
:1059E00005510020B0BDD4F10104B4F120070FDA55
:1059F000C4F12007520828BF42F0010210FA07F54F
:105A000001FA07F7E1BF2A43E0403843E1400FE0E5
:105A1000352C98DCC7F1200452EA400220FA07F244
:105A200018BF42F0010231FA07F0A1400A430021F9
:105A300072F1004250F1000051EB0C01B0BD0000CA
:105A4000F446400D40EAC120490006D200F014F8A7
:105A5000004248BF6FF00040604700F00DF84FF083
:105A6000004188428CBF084640426047400D40EAF2
:105A7000C120490080F00D8040F00040490DA1F5A3
:105A80008061491C05D4D1F11F0154BFC840C01723
:105A900070474FF00000704770B44FF0004591EA36
:105AA000030C44BF6B4003F063B900BF841A71EB71
:105AB000030603D2001BB141121973414FF4001CBD
:105AC0001CEB410F34BF7CEB430443E00C0DA4EB13
:105AD0001356352E50DC45EAC323DB0A45EAC121C3
